{
  "contractName": "SocialMedia",
  "abi": [
    {
      "inputs": [],
      "payable": false,
      "stateMutability": "nonpayable",
      "type": "constructor"
    },
    {
      "anonymous": false,
      "inputs": [
        {
          "indexed": true,
          "internalType": "address",
          "name": "from",
          "type": "address"
        },
        {
          "indexed": true,
          "internalType": "address",
          "name": "to",
          "type": "address"
        },
        {
          "indexed": false,
          "internalType": "uint256",
          "name": "amount",
          "type": "uint256"
        }
      ],
      "name": "Withdraw",
      "type": "event"
    },
    {
      "constant": true,
      "inputs": [
        {
          "internalType": "address",
          "name": "",
          "type": "address"
        }
      ],
      "name": "balances",
      "outputs": [
        {
          "internalType": "uint256",
          "name": "",
          "type": "uint256"
        }
      ],
      "payable": false,
      "stateMutability": "view",
      "type": "function"
    },
    {
      "constant": true,
      "inputs": [
        {
          "internalType": "uint256",
          "name": "",
          "type": "uint256"
        }
      ],
      "name": "posts",
      "outputs": [
        {
          "internalType": "uint256",
          "name": "id",
          "type": "uint256"
        },
        {
          "internalType": "string",
          "name": "content",
          "type": "string"
        },
        {
          "internalType": "uint256",
          "name": "donated",
          "type": "uint256"
        },
        {
          "internalType": "address",
          "name": "owner",
          "type": "address"
        }
      ],
      "payable": false,
      "stateMutability": "view",
      "type": "function"
    },
    {
      "constant": true,
      "inputs": [],
      "name": "totalPosts",
      "outputs": [
        {
          "internalType": "uint256",
          "name": "",
          "type": "uint256"
        }
      ],
      "payable": false,
      "stateMutability": "view",
      "type": "function"
    },
    {
      "constant": false,
      "inputs": [
        {
          "internalType": "string",
          "name": "_content",
          "type": "string"
        }
      ],
      "name": "createPost",
      "outputs": [],
      "payable": false,
      "stateMutability": "nonpayable",
      "type": "function"
    },
    {
      "constant": false,
      "inputs": [
        {
          "internalType": "uint256",
          "name": "_postId",
          "type": "uint256"
        }
      ],
      "name": "donate",
      "outputs": [
        {
          "internalType": "bool",
          "name": "success",
          "type": "bool"
        }
      ],
      "payable": true,
      "stateMutability": "payable",
      "type": "function"
    },
    {
      "constant": false,
      "inputs": [
        {
          "internalType": "uint256",
          "name": "_amount",
          "type": "uint256"
        }
      ],
      "name": "withdraw",
      "outputs": [
        {
          "internalType": "bool",
          "name": "success",
          "type": "bool"
        }
      ],
      "payable": false,
      "stateMutability": "nonpayable",
      "type": "function"
    }
  ],
  "bytecode": "0x60806040526000805534801561001457600080fd5b5033600160006101000a81548173ffffffffffffffffffffffffffffffffffffffff021916908373ffffffffffffffffffffffffffffffffffffffff160217905550610b5f806100656000396000f3fe6080604052600436106100555760003560e01c80630b1e7f831461005a57806327e235e31461014f5780632e1a7d4d146101b45780638e53fb4114610207578063c7303c6114610232578063f14faf6f146102fa575b600080fd5b34801561006657600080fd5b506100936004803603602081101561007d57600080fd5b8101908080359060200190929190505050610340565b60405180858152602001806020018481526020018373ffffffffffffffffffffffffffffffffffffffff1673ffffffffffffffffffffffffffffffffffffffff168152602001828103825285818151815260200191508051906020019080838360005b838110156101115780820151818401526020810190506100f6565b50505050905090810190601f16801561013e5780820380516001836020036101000a031916815260200191505b509550505050505060405180910390f35b34801561015b57600080fd5b5061019e6004803603602081101561017257600080fd5b81019080803573ffffffffffffffffffffffffffffffffffffffff169060200190929190505050610428565b6040518082815260200191505060405180910390f35b3480156101c057600080fd5b506101ed600480360360208110156101d757600080fd5b8101908080359060200190929190505050610440565b604051808215151515815260200191505060405180910390f35b34801561021357600080fd5b5061021c61068e565b6040518082815260200191505060405180910390f35b34801561023e57600080fd5b506102f86004803603602081101561025557600080fd5b810190808035906020019064010000000081111561027257600080fd5b82018360208201111561028457600080fd5b803590602001918460018302840111640100000000831117156102a657600080fd5b91908080601f016020809104026020016040519081016040528093929190818152602001838380828437600081840152601f19601f820116905080830192505050505050509192919290505050610694565b005b6103266004803603602081101561031057600080fd5b8101908080359060200190929190505050610771565b604051808215151515815260200191505060405180910390f35b6003602052806000526040600020600091509050806000015490806001018054600181600116156101000203166002900480601f0160208091040260200160405190810160405280929190818152602001828054600181600116156101000203166002900480156103f25780601f106103c7576101008083540402835291602001916103f2565b820191906000526020600020905b8154815290600101906020018083116103d557829003601f168201915b5050505050908060020154908060030160009054906101000a900473ffffffffffffffffffffffffffffffffffffffff16905084565b60026020528060005260406000206000915090505481565b600080821161049a576040517f08c379a000000000000000000000000000000000000000000000000000000000815260040180806020018281038252602b815260200180610b00602b913960400191505060405180910390fd5b600260003373ffffffffffffffffffffffffffffffffffffffff1673ffffffffffffffffffffffffffffffffffffffff1681526020019081526020016000205482111561054f576040517f08c379a000000000000000000000000000000000000000000000000000000000815260040180806020018281038252600c8152602001807f496e73756666696369656e74000000000000000000000000000000000000000081525060200191505060405180910390fd5b81600260003373ffffffffffffffffffffffffffffffffffffffff1673ffffffffffffffffffffffffffffffffffffffff1681526020019081526020016000206000828254039250508190555060006064600a8402816105ab57fe5b04905060003390508073ffffffffffffffffffffffffffffffffffffffff166108fc8386039081150290604051600060405180830381858888f193505050501580156105fb573d6000803e3d6000fd5b503373ffffffffffffffffffffffffffffffffffffffff16600160009054906101000a900473ffffffffffffffffffffffffffffffffffffffff1673ffffffffffffffffffffffffffffffffffffffff167f9b1bfa7fa9ee420a16e124f794c35ac9f90472acc99140eb2f6447c714cad8eb866040518082815260200191505060405180910390a3600192505050919050565b60005481565b600080815480929190600101919050555060405180608001604052806000548152602001828152602001600081526020013373ffffffffffffffffffffffffffffffffffffffff168152506003600080548152602001908152602001600020600082015181600001556020820151816001019080519060200190610719929190610a1c565b506040820151816002015560608201518160030160006101000a81548173ffffffffffffffffffffffffffffffffffffffff021916908373ffffffffffffffffffffffffffffffffffffffff16021790555090505050565b600080349050600081116107ed576040517f08c379a000000000000000000000000000000000000000000000000000000000815260040180806020018281038252601b8152602001807f596f75206e65656420746f2073656e6420736f6d65206574686572000000000081525060200191505060405180910390fd5b6107f5610a9c565b6003600085815260200190815260200160002060405180608001604052908160008201548152602001600182018054600181600116156101000203166002900480601f0160208091040260200160405190810160405280929190818152602001828054600181600116156101000203166002900480156108b65780601f1061088b576101008083540402835291602001916108b6565b820191906000526020600020905b81548152906001019060200180831161089957829003601f168201915b50505050508152602001600282015481526020016003820160009054906101000a900473ffffffffffffffffffffffffffffffffffffffff1673ffffffffffffffffffffffffffffffffffffffff1673ffffffffffffffffffffffffffffffffffffffff1681525050905034816040018181510191508181525050806003600086815260200190815260200160002060008201518160000155602082015181600101908051906020019061096b929190610a1c565b506040820151816002015560608201518160030160006101000a81548173ffffffffffffffffffffffffffffffffffffffff021916908373ffffffffffffffffffffffffffffffffffffffff1602179055509050503460026000836060015173ffffffffffffffffffffffffffffffffffffffff1673ffffffffffffffffffffffffffffffffffffffff16815260200190815260200160002060008282540192505081905550600192505050919050565b828054600181600116156101000203166002900490600052602060002090601f016020900481019282601f10610a5d57805160ff1916838001178555610a8b565b82800160010185558215610a8b579182015b82811115610a8a578251825591602001919060010190610a6f565b5b509050610a989190610ada565b5090565b6040518060800160405280600081526020016060815260200160008152602001600073ffffffffffffffffffffffffffffffffffffffff1681525090565b610afc91905b80821115610af8576000816000905550600101610ae0565b5090565b9056fe596f75206e65656420746f2077697468647261772061742061746c6561737420736f6d6520746f6b656e73a265627a7a72315820ca5a643ffd265622b2cb8a21551d805b328db2b78ddb73eb581d3ca61973726164736f6c63430005100032",
  "source": "//SPDX-License-Identifier: UNLICENSED\npragma solidity >=0.4.22 <0.9.0;\n\ncontract SocialMedia {\n  uint public totalPosts = 0;\n\n  address socialMediaOwner;\n\n  struct Post {\n    uint id;\n    string content;\n    uint256 donated;\n    address owner;\n  }\n\n  constructor() public {\n    socialMediaOwner = msg.sender;\n  }\n\n  event Withdraw(address indexed from, address indexed to, uint amount);\n\n  mapping (address => uint256) public balances;\n  mapping (uint => Post) public posts;\n\n  function createPost(string memory _content) public {\n    totalPosts++;\n    posts[totalPosts] = Post(totalPosts, _content, 0, msg.sender);\n  }\n\n  // function buyCredit(uint256 _amount) payable public {\n  //   require(_amountToDonate > 0, \"You need to send some ether\");\n  //   balances[msg.sender] += msg.value;\n  // }\n\n  // function donate(uint _postId) payable public returns(bool success) {\n  //   uint256 _amountToDonate = msg.value;\n  //   require(_amountToDonate > 0, \"You need to send some ether\");\n  //   Post memory _post = posts[_postId];\n  //   _post.donated += msg.value;\n  //   posts[_postId] = _post;\n  //   balances[_post.owner] += msg.value;\n  //   return true;\n  // }\n\n  function donate(uint _postId) payable public returns(bool success) {\n    uint256 _amountToDonate = msg.value;\n    require(_amountToDonate > 0, \"You need to send some ether\");\n    Post memory _post = posts[_postId];\n    _post.donated += msg.value;\n    posts[_postId] = _post;\n    balances[_post.owner] += msg.value;\n    return true;\n  }\n\n  function withdraw(uint256 _amount) public returns(bool success) {\n    require(_amount > 0, \"You need to withdraw at atleast some tokens\");\n    require(_amount <= balances[msg.sender], \"Insufficient\");\n    balances[msg.sender] -= _amount;\n    uint256 _amountToDeduct = _amount * 10 / 100;\n    address payable wallet = address(uint160(address(msg.sender)));\n    wallet.transfer(_amount - _amountToDeduct);\n    emit Withdraw(socialMediaOwner, msg.sender, _amount);\n    return true;\n  }\n}\n",
  "sourcePath": "/Users/nipa/eth-test/contracts/SocialMedia.sol",
  "compiler": {
    "name": "solc",
    "version": "0.5.16+commit.9c3226ce.Emscripten.clang"
  },
  "schemaVersion": "3.4.2",
  "updatedAt": "2021-08-08T04:28:26.619Z",
  "networkType": "ethereum",
  "devdoc": {
    "methods": {}
  },
  "userdoc": {
    "methods": {}
  }
}